:020000040800F2
:1000000000000120C5020008CB020008CF02000852
:1000100041030008450300088D03000800000000AC
:10002000000000000000000000000000D5030008F0
:10003000D903000800000000DD030008910C00084F
:10004000F1030008F1030008F1030008F1030008C0
:10005000F1030008F1030008110800082D0800084A
:1000600049080008F1030008F1030008F103000843
:10007000F1030008F1030008F1030008F103000890
:10008000F1030008F1030008F1030008000000007C
:1000900000000000000000000000000065080008EB
:1000A000F1030008F1030008F1030008F103000860
:1000B000F1030008F1030008F1030008F103000850
:1000C000F1030008F1030008F1030008F103000840
:1000D000F1030008350D0008F103000800000000DE
:1000E000F1030008F1030008F1030008000000001C
:1000F000000000000000000000000000F103000804
:1001000000000000F1030008F1030008F1030008FB
:1001100000000000000000000000000000000000DF
:10012000F1030008F1030008F1030008F1030008DF
:10013000F1030008000000000000000000000000C3
:10014000000000000000000000000000F1030008B3
:10015000F1030008F1030008F1030008F1030008AF
:10016000F1030008F1030008000000000000000097
:10017000000000000000000000000000000000007F
:1001800000000000F1030008000000000000000073
:10019000F103000800B583B000F0BAF9384B394AD2
:1001A0001360394A1360394900E02146384B9942BF
:1001B0000BD20A684B6801F10C0488689842F4D9A4
:1001C0001168196004330432F8E72E4B1A68314B7A
:1001D0009A4200D0FEE72C4B1A682F4B9A42F9D175
:1001E000274B2E4A13602E4A13602E4B05E0002049
:1001F000106004329342FAD80B462B4A934204D241
:10020000194651F8082B5B68F4E7244B1B6813B9B7
:10021000234B1B6803B1FEE700F086F9694601A88D
:1002200000F022F9214C224BE41AA4100025AC4224
:1002300014DC204C204BE41AA4100025AC4213DC43
:100240000099019800F0C0FD05461C4C1C4BE41AB7
:10025000A410002C0EDC284600F0E2F8144B53F8F2
:10026000253098470135E2E7134B53F8253098477E
:100270000135E3E7013C124B53F824309847E8E797
:10028000BABADECA0000002074000020F40300089F
:100290000C04000878563412325476987800002006
:1002A000280100200C0400081C0400081C0400089D
:1002B0001C0400081C0400081C0400081C0400089E
:1002C0001C04000808B5FFF765FF00BEFEE71EF03E
:1002D000040F0CBFEFF30880EFF309807146414A29
:1002E00010472DE9F04182B004468846124B5E6B00
:1002F0009F6B9D6A1B6B13F0020F03D00E4BDB6AE2
:10030000002B0CDB0D4800F0B7F8CDF800803B4621
:1003100032462946204600F00BF900BEFEE74BF6B8
:10032000AB6100F07FF90028ECD0034B4FF00042A6
:10033000DA6202B0BDE8F08100ED00E0C418000808
:1003400000BEFEE71EF0040F0CBFEFF30880EFF3D2
:1003500009807146244A10472DE9F04182B00446D5
:100360008846084B5E6B9F6B9D6A074800F084F8D7
:10037000CDF800803B4632462946204600F0D8F8AA
:1003800000BEFEE700ED00E0D41800081EF0040FE8
:100390000CBFEFF30880EFF309807146134A104752
:1003A0002DE9F04182B004468846084B5E6B9F6B96
:1003B0009D6A074800F060F8CDF800803B46324661
:1003C0002946204600F0B4F800BEFEE700ED00E04C
:1003D000E018000800BEFEE700BEFEE700BEFEE734
:1003E00070470000E302000859030008A103000859
:0403F00000BEFEE766
:1003F4006C76020800000020780000206C76020869
:100404000000001000000010780000202C010020E3
:080414000000001000000010C0
:10042000FEE7000008B503460C4A12685AB10B4AB1
:100430001068033323F003030344094A934206D8A8
:10044000064A136008BD054A06491160EFE700F04F
:1004500031FD0C2303604FF0FF30F3E77C000020F8
:1004600000FC00202C01002001230360014B0B60E5
:10047000704700BF040000200FB400B583B004AB88
:1004800053F8042B01938021064800F045FD002815
:1004900003DD0146034800F037F803B05DF804EBD4
:1004A00004B07047840000202DE9F04385B0044675
:1004B0000F4643560BB10E461EE004252846214642
:1004C000ABBE0446384605B0BDE8F08314F9011B05
:1004D00004AA1A4402F8101C0133AB42F6D304AA52
:1004E0001344002203F8102C4FF00408E94640465C
:1004F0004946ABBE8046761B002EE3D03546102E13
:1005000028BF10250023E8E708B5FFF7CDFF08BD99
:1005100008B500F097F8024A024B9A6008BD00BF88
:100520000000000800ED00E008B500F0ABF808BDE1
:10053000F8B504460D4617461E462748FFF79CFFB0
:1005400021682648FFF798FF61682548FFF794FF68
:10055000A1682448FFF790FFE1682348FFF78CFF6C
:1005600021692248FFF788FF61692148FFF784FF6E
:10057000A1692048FFF780FFE1691F48FFF77CFF72
:100580001E48FFF779FF29461D48FFF775FF1D4CF0
:10059000E16A1D48FFF770FF216B1C48FFF76CFFF5
:1005A000E16B1B48FFF768FF15F0800F0AD115F4C7
:1005B000004F0CD11748FFF75FFF06991648FFF769
:1005C0005BFFF8BD39461548FFF756FFEFE73146A8
:1005D0001348FFF751FFEDE7A8170008B817000808
:1005E000C8170008D8170008E8170008F81700080F
:1005F00008180008181800082818000838180008FB
:100600004418000800ED00E05418000864180008C1
:1006100074180008A4180008AC1800088418000812
:100620009418000883691A888A4201D00020704714
:100630000268033A012A03D802338361012070471C
:10064000002070470C4B1A6842F001021A6000212A
:1006500099601A6822F0847222F480321A60074A84
:100660005A601A6822F480221A60D960044B4FF055
:1006700000629A60704700BF0038024010300024CA
:1006800000ED00E0224B9B6803F00C03042B14D018
:10069000082B16D01BB11F4B1F4A1A6002E01D4BDE
:1006A0001D4A1A601A4B9B68C3F303131B4AD15CA3
:1006B000184A1368CB4013607047164B184A1A60EB
:1006C000F0E7134B5A685B6803F03F0312F4800FA6
:1006D00013D0134AB2FBF3F20D4B5B68C3F38813DC
:1006E00003FB02F30A4A5268C2F30142013252008C
:1006F000B3FBF2F3074A1360D4E7074AB2FBF3F205
:10070000034B5B68C3F3881303FB02F3EAE700BF04
:10071000003802400C0000200024F400F01800080B
:1007200040787D0103490B68012202FA00F003437F
:100730000B607047003C014001290BD011B1022928
:1007400010D070470D498B68012202FA00F018435F
:10075000886070470949CB68012202FA00F018430B
:10076000C8607047054A9168012303FA00F001430D
:100770009160D3681843D060704700BF003C0140CF
:10078000052834D8DFE800F0030C1620332A184B74
:100790001A6822F00F021A601A6811431960704734
:1007A000134B1A6822F0F0021A601A6842EA01112B
:1007B000196070470E4B1A6822F470621A601A684A
:1007C00042EA012119607047094B1A6822F470420D
:1007D0001A601A6842EA013119607047054B1A68BD
:1007E00022F0F0021A601A6842EA0111196070479B
:1007F000083801400C380140014B1860704700BFB9
:1008000004010020014B1860704700BF0C0100205C
:1008100008B5044B1B689847034A536943F001032A
:10082000536108BD04010020003C014008B5044BA1
:100830001B689847034A536943F00203536108BD9C
:1008400008010020003C014008B5044B1B68984794
:10085000034A536943F00403536108BD0C010020AF
:10086000003C014008B5044B1B689847034A536994
:1008700043F02003536108BD10010020003C0140FB
:1008800005282DD8DFE800F0030A11181F261548A7
:10089000036849008A401A4302607047124803689F
:1008A00049008A401A4302607047104803684900B3
:1008B0008A401A43026070470D48036849008A4025
:1008C0001A43026070470B48036849008A401A4384
:1008D000026070470848036849008A401A43026072
:1008E000704700BF000002400004024000080240C0
:1008F000000C024000100240001C024005282DD8C8
:10090000DFE800F0030A11181F2615488368490024
:100910008A401A43826070471248836849008A40BF
:100920001A43826070471048836849008A401A431E
:10093000826070470D48836849008A401A4382608C
:1009400070470B48836849008A401A4382607047A9
:100950000848836849008A401A438260704700BF94
:10096000000002400004024000080240000C024067
:1009700000100240001C024005282DD8DFE800F0DE
:10098000030A11181F261548C36849008A401A43F4
:10099000C26070471248C36849008A401A43C26067
:1009A00070471048C36849008A401A43C2607047C4
:1009B0000D48C36849008A401A43C26070470B481B
:1009C000C36849008A401A43C26070470848C36838
:1009D00049008A401A43C260704700BF00000240CD
:1009E0000004024000080240000C024000100240D7
:1009F000001C0240012A06D0052870D8DFE800F06C
:100A00003A434C555E67052869D8DFE800F0030BD0
:100A1000131B232B32484369012202FA01F11943C7
:100A2000416170472F484369012202FA01F11943DD
:100A3000416170472C484369012202FA01F11943D0
:100A40004161704729484369012202FA01F11943C3
:100A50004161704726484369012202FA01F11943B6
:100A60004161704723484369012202FA01F11943A9
:100A7000416170471A484369012202FA01F123EAF1
:100A800001014161704717484369012202FA01F1EF
:100A900023EA01014161704713484369012202FAC8
:100AA00001F123EA010141617047104843690122C5
:100AB00002FA01F123EA0101416170470C484369E0
:100AC000012202FA01F123EA01014161704709485C
:100AD0004369012202FA01F123EA010141617047F1
:100AE000000002400004024000080240000C0240E6
:100AF00000100240001C024007291DD801280BD01D
:100B000010B1022810D070471E48036A890002FA0B
:100B100001F11943016270471B48036A890002FA18
:100B200001F11943016270471848036A890002FA0B
:100B300001F119430162704710B401280ED018B1B9
:100B4000022815D010BC70470E4C606A01F00703F4
:100B50009B0002FA03F101436162F3E70A4C606A09
:100B600001F007039B0002FA03F101436162E9E728
:100B70000648436A01F00701890002FA01F11943AE
:100B80004162DFE70000024000040240000802402A
:100B900000F01F02400901239340024A42F820302E
:100BA000704700BF00E100E0072844D8DFE800F00C
:100BB000040C141C242C343C1F480368012202FA44
:100BC00001F11943016070471C480368012202FAD1
:100BD00001F119430160704719480368012202FAC4
:100BE00001F119430160704716480368012202FAB7
:100BF00001F119430160704713480368012202FAAA
:100C000001F119430160704710480368012202FA9C
:100C100001F11943016070470D480368012202FA8F
:100C200001F11943016070470A480368012202FA82
:100C300001F11943016070473038024034380240F6
:100C40004038024044380240503802405438024094
:100C50006038024064380240074A136843F00103D9
:100C60001360064B1A6822F001021A601A6822F01B
:100C700002021A60704700BF003802400838024084
:100C8000024B1868C0F30040704700BF10E000E05E
:100C900000B583B000238DF80730054B1B689847DB
:100CA000FFF7EEFF8DF8070003B05DF804FB00BF0F
:100CB000140100200F4B8B229A60DA686FF3CF3259
:100CC000DA60DA686FF30C32DA60DA686FF38A227E
:100CD000DA601A6922F480521A611A6922F4005209
:100CE0001A61DA6842F00802DA60DA6842F0040257
:100CF000DA6070470010014000228A420ED210B420
:100D0000845C074B5C60064B1B6813F0800FFAD0C5
:100D10000132D2B28A42F3D310BC7047704700BF91
:100D200000100140024AD36843F40053D360704777
:100D30000010014008B5024B1B68984708BD00BF72
:100D40001801002038B5002201211046FFF752FE9D
:100D500000250FE005EB4500C0EB00102044012109
:100D6000084B1844FFF7C8FF0134E4B22C2CF1D92A
:100D70000135ADB240F689339D4201D80024F5E734
:100D800038BD00BF0019000838B500220121104607
:100D9000FFF730FE00250FE005EB4500C0EB00102B
:100DA00020440121074B1844FFF7A6FF0134E4B2A9
:100DB0002C2CF1D90135ADB2B5F5F47F01D8002462
:100DC000F6E738BD4420020808B5FFF745FF0021CB
:100DD0000846FFF7E9FE01210020FFF7E5FE0421A8
:100DE0000320FFF7E1FE0E210320FFF7DDFE0122C5
:100DF00011460020FFF744FD012211460020FFF7B5
:100E00007DFD002211461046FFF73AFD0122002128
:100E10000846FFF7B1FD002202210120FFF730FD57
:100E2000012202211046FFF7A7FD0222092100201E
:100E3000FFF726FD02220A210020FFF721FD0722ED
:100E400009210020FFF758FE07220A210020FFF7A2
:100E500053FEFFF72FFFFFF765FF01210020FFF78B
:100E60006BFC00210846FFF78BFC1048FFF7C4FC21
:100E70000020FFF757FC0620FFF78AFE0121022021
:100E8000FFF75AFC01210220FFF77AFC0848FFF720
:100E9000B9FC0220FFF746FC0820FFF779FE01228B
:100EA00011460020FFF7A6FDFEE700BF450D000834
:100EB000890D0008014B1868704700BF1000002022
:100EC00030B5141E05469BB0184605DA8B232B60FF
:100ED0004FF0FF301BB030BD4FF40273ADF80C3053
:100EE00014BF04F1FF332346029305934FF6FF73BB
:100EF00000910491ADF80E3002461E9B69462846CB
:100F000000F072F8431CBCBF8B232B60002CE1D097
:100F1000009B00221A70DDE707B5009313460A46CE
:100F2000014603480068FFF7CBFF03B05DF804FB00
:100F3000100000202DE9F0478E689E4282460C4644
:100F40009046994637D88A8912F4906F31D0256837
:100F500009696F1A6569022305EB450595FBF3F5F1
:100F600009F101033B449D4238BF1D46530530D56E
:100F7000294600F07FFB064650B90C23CAF8003022
:100F8000A38943F04003A3814FF0FF30BDE8F08711
:100F90003A46216900F0FCFAA38923F4906343F0F8
:100FA0008003A381266165613E44ED1B2660A56038
:100FB0004E464E4500D94E4632464146206800F026
:100FC000F2FAA3689B1BA36023681E4426600020DE
:100FD000DCE72A4600F0A8FB06460028E2D121699A
:100FE000504600F0F9FAC8E72DE9F04F9DB0804671
:100FF00003938B891D060C4616460FD50B696BB9FA
:10100000402100F037FB2060206128B90C23C8F88C
:1010100000304FF0FF30C7E04023636100230993A5
:1010200020238DF8293030238DF82A304FF0010B22
:1010300037463D4615F8013B0BB1252B3ED1B7EBAA
:10104000060A0BD05346324621464046FFF772FF50
:10105000013000F0A480099B534409933B78002B96
:1010600000F09D8000234FF0FF32CDE9052304936B
:1010700007938DF853301A932F46052217F8011B5A
:101080004F4800F035FA049BD0B9D90644BF20225E
:101090008DF853201A0744BF2B228DF853202A784D
:1010A0002A2A15D0079A2F4600200A25394611F81A
:1010B000013B303B092B4DD9B8B10FE02F46B8E7C3
:1010C0003F4A801A0BFA00F0184304903D46D3E7DC
:1010D000039A111D12680391002A01DB079204E0B4
:1010E000524243F00203079204933B782E2B0CD11B
:1010F0007B782A2B33D1039B1A1D1B680392002B8C
:10110000B8BF4FF0FF33023705932E4D39780322D5
:10111000284600F0EDF938B14023401B03FA00F0F7
:10112000049B034301370493397827488DF828102E
:1011300006227E1C00F0DCF9002838D0234B13BBBC
:10114000039B073323F0070308330393099B4B44A6
:1011500009936DE705FB023201200F46A6E7002345
:101160000137059319460A25384610F8012B303A05
:10117000092A03D9002BC8D00591C6E705FB012138
:1011800001230746F0E703AB00932246104B04A966
:101190004046AFF30080B0F1FF3F8146D6D1A3892E
:1011A0005B063FF536AF09981DB0BDE8F08F03AB85
:1011B00000932246064B04A9404600F081F8EAE776
:1011C000397602083F7602084376020800000000E4
:1011D000350F00082DE9F04791461F468A680B69D4
:1011E000DDF820809342B8BF1346C9F8003091F86B
:1011F000432006460C4612B10133C9F8003023687B
:10120000990642BFD9F800300233C9F8003025688A
:1012100015F0060507D104F1190AE368D9F8002092
:101220009B1AAB4228DC94F843302268003318BF85
:10123000012392062DD404F1430239463046C047BB
:10124000013020D02368E568D9F8002003F00603B8
:10125000042B08BFAD1AA36822690CBF25EAE57507
:1012600000259342C4BF9B1AED184FF000091A34B1
:101270004D451AD1002008E0012352463946304638
:10128000C047013003D14FF0FF30BDE8F087013592
:10129000C3E7E1185A1C302081F84300224494F837
:1012A000451082F843100233C5E701232246394630
:1012B0003046C0470130E6D009F10109D8E7000007
:1012C0002DE9F04301F1430C0C46097E85B06E29EF
:1012D0001746064698460C9A00F0B38022D8632938
:1012E00036D00AD8002900F0B980582900F0838050
:1012F00004F1420584F8421032E0642901D06929E2
:10130000F6D120681368050603F104012AD51B688D
:101310001160002B03DA2D225B4284F843206F48D2
:101320000A2239E0732900F09D8008D86F2920D067
:101330007029DDD1236843F02003236003E0752981
:1013400017D07829D4D1782384F84530644855E003
:101350001368191D1B68116004F1420584F84230BE
:1013600001238CE01B68116010F0400F18BF1BB206
:10137000CFE713682568181D1060280601D51B6883
:1013800002E06806FBD51B8854486F2914BF0A2267
:101390000822002184F843106568A560002DC0F282
:1013A0009580216821F004012160002B3DD1002DA2
:1013B00040F08E806546082A0BD12368DB0708D5EC
:1013C000236962689A42DEBF302305F8013C05F1CB
:1013D000FF35ACEB05032361CDF800803B4603AA43
:1013E00021463046FFF7F6FE01304DD14FF0FF3079
:1013F00005B0BDE8F083394884F8451013682168CA
:101400001D1D1B6815600A060BD5CA0744BF41F0B5
:10141000200121601BB9226822F0200222601022E4
:10142000B7E74D0648BF9BB2EFE76546B3FBF2F165
:1014300002FB1133C35C05F8013D0B460029F5D1D1
:10144000B9E7136825686169181D106028061B68D4
:1014500001D5196002E06A06FBD5198000232361DB
:101460006546B9E71368191D11601D68626800219F
:10147000284600F03DF808B1401B606063682361B6
:10148000002384F84330A7E723692A4639463046CB
:10149000C0470130AAD023689B0713D4E068039BA0
:1014A0009842B8BF1846A3E701234A46394630465A
:1014B000C04701309AD00135E368039A9B1AAB42CA
:1014C000F2DCEBE7002504F11909F5E7002BACD1BC
:1014D000037884F8423004F142056CE74A7602084A
:1014E0005B76020800000000000000000000000021
:1014F00001F0FF01102A2BDB10F0070F08D010F8C5
:10150000013B013A8B422DD010F0070F42B3F6D1C8
:10151000F0B441EA012141EA014122F007047FF0E1
:1015200000070023F0E80256083C85EA010586EA38
:10153000010685FA47F5A3FA87F586FA47F6A5FA74
:1015400087F68EB9EED1F0BC01F0FF0102F0070280
:1015500032B110F8013B013A83EA010313B1F8D12B
:101560000020704701387047002D06BF354603380C
:10157000073815F0010F07D1013015F4807F02BF45
:10158000013015F4C03F0130F0BC0138704700BF96
:1015900010B5431E0A44914200D110BD11F8014B11
:1015A00003F8014FF7E7884210B501EB020307D8B3
:1015B000421E99420AD011F8014B02F8014FF8E798
:1015C0008342F5D98118D21AD34200D110BD13F845
:1015D000014D01F8014DF7E738B50546002945D022
:1015E00051F8043C0C1F002BB8BFE41800F0D2F8EF
:1015F0001F4A1368104633B9636014602846BDE87B
:10160000384000F0C8B8A3420CD921686218934250
:1016100004BF1A685B68636004BF521822600460EC
:10162000ECE713465A680AB1A242FAD91968581869
:10163000A0420BD120680144581882421960DDD1C4
:10164000106852685A6001441960D7E702D90C2328
:101650002B60D3E7206821188A4204BF11685268C2
:10166000626004BF091821605C60C7E738BD00BF35
:101670001C01002070B5CD1C25F0030508350C2D8C
:1016800038BF0C25002D064601DBA94203D90C23E7
:101690003360002070BD00F07DF8214A14682146B7
:1016A00091B9204C23681BB9304600F063F82060E4
:1016B0002946304600F05EF8431C24D10C233360E9
:1016C000304600F068F8E4E70B685B1B18D40B2B7E
:1016D0000FD90B60CD50CC18304600F05CF804F107
:1016E0000B00231D20F00700C31AD3D05A42E2504A
:1016F000D0E78C424B6816BF636013600C46EBE783
:101700000C464968CCE7C41C24F00304A04205D071
:10171000211A304600F02EF80130CFD02560DBE7EB
:101720001C01002020010020F8B5074614460E4693
:1017300021B91146BDE8F840FFF79CBF22B9FFF779
:101740004BFF25462846F8BD00F026F8A0420FD2F0
:1017500021463846FFF78EFF05460028F2D0314675
:101760002246FFF715FF31463846FFF735FFE9E718
:101770003546E7E738B5064C0023054608462360A2
:10178000FEF750FE431C02D1236803B12B6038BD25
:10179000240100207047704751F8043C181F002BAB
:1017A000BCBF0B58C0187047537461636B206672DE
:1017B000616D653A0A000000205230203D2020254E
:1017C0003038580A00000000205231203D202025EA
:1017D0003038580A00000000205232203D202025D9
:1017E0003038580A00000000205233203D202025C8
:1017F0003038580A0000000020523132203D2025A8
:101800003038580A00000000204C52203D2020258E
:101810003038580A00000000205043203D20202589
:101820003038580A0000000020505352203D202537
:101830003038580A000000004653522F4641523AB1
:101840000A0000002043465352203D202025303816
:10185000580A00002048465352203D2020253038A9
:10186000580A00002044465352203D20202530389D
:10187000580A00002041465352203D202025303890
:10188000580A0000204D4D464152203D2025303859
:10189000580A00002042464152203D202025303881
:1018A000580A00004D6973630A000000204C522F53
:1018B0004558435F52455455524E3D2025303858C7
:1018C0000A0000005B486172644661756C745D0AD1
:1018D000000000005B4275734661756C745D0A0020
:1018E0005B55736167654661756C745D0A00000045
:1018F00000000000000000000102030406070809C0
:101900003A303230303030303430383030463200D7
:1019100000000000000000000000000000000000C7
:10192000000000000000000000000000003A31301C
:101930003430303030303030303030313230433588
:10194000343230303038434234323030303843462D
:10195000343230303038353200003A3130343031C2
:101960003030303431343330303038343534333053
:101970003030383844343330303038303030303034
:10198000303030414300003A313034303230303082
:101990003030303030303030303030303030303047
:1019A000303030303030303044353433303030380F
:1019B000373000003A31303430333030304439344D
:1019C00033303030383030303030303030444434E0
:1019D00033303030383244344430303038423200E2
:1019E000003A3130343034303030463134333030F6
:1019F000303846313433303030384631343330309B
:101A000030384631343330303038383000003A31F5
:101A10003034303530303046313433303030384681
:101A2000313433303030384631343330303038466A
:101A300031343330303038373000003A31303430E0
:101A4000363030304631343330303038463134334C
:101A5000303030384631343330303038463134333A
:101A600030303038363000003A31303430373030B2
:101A70003046313433303030384631343330303022
:101A8000384631343330303038463134333030300A
:101A900038353000003A313034303830303046316B
:101AA00034333030303846313433303030384631EA
:101AB00034333030303830303030303030303743FD
:101AC00000003A313034303930303030303030305E
:101AD0003030303030303030303030303030303006
:101AE0003030304631343330303038453400003A0D
:101AF00031303430413030304631343330303038AA
:101B00004631343330303038463134333030303889
:101B10004631343330303038323000003A313034EE
:101B20003042303030463134333030303846313462
:101B30003330303038463134333030303846313459
:101B40003330303038313000003A313034304330C7
:101B50003030463134333030303846313433303041
:101B6000303846313433303030384144344330300B
:101B70003038334200003A3130343044303030466F
:101B80003134333030303846313433303030384609
:101B90003134333030303830303030303030303233
:101BA0004300003A31303430453030304631343340
:101BB00030303038463134333030303846313433D9
:101BC0003030303830303030303030303143000059
:101BD0003A313034304630303030303030303030E0
:101BE00030303030303030303030303030303030F5
:101BF000304631343330303038383400003A313008
:101C000034313030303030303030303030304631B8
:101C10003433303030384631343330303038463178
:101C2000343330303038464200003A3130343131CC
:101C300030303030303030303030303030303030A4
:101C40003030303030303030303030303030303094
:101C5000303030394600003A3130343132303030B3
:101C60004631343330303038463134333030303828
:101C70004631343330303038463134333030303818
:101C8000394600003A313034313330303046313467
:101C90003330303038303030303030303030303039
:101CA000303030303030303030303030303433005D
:101CB000003A313034313430303030303030303040
:101CC0003030303030303030303030303030303014
:101CD00030304631343330303038333300003A312D
:101CE00030343135303030463134333030303846AE
:101CF0003134333030303846313433303030384698
:101D000031343330303038364600003A31303431F7
:101D10003630303046313433303030384631343379
:101D200030303038303030303030303030303030AB
:101D300030303030443700003A31303431373030D1
:101D40003030303030303030303030303030303093
:101D50003030303030303030303030303030303083
:101D600030334600003A31303431383030303030A2
:101D7000303030303030463134333030303830303D
:101D8000303030303030303030303030303046333A
:101D900000003A313034313930303046313433306C
:101DA00030303830304235383342303030463042CF
:101DB0004146393338344233393441353200003A00
:101DC00031303431413030303133363033393441D1
:101DD00031333630333934393030453032313436BE
:101DE0003338344239393432374600003A313034EE
:101DF000314230303030424432304136383442366D
:101E00003830314631304330343838363839383468
:101E10003246344439363400003A313034314330BC
:101E20003030313136383139363030343333303484
:101E30003332463845373245344231413638333112
:101E40003442334100003A3130343144303030399B
:101E500041343230304430464545373243344231E4
:101E600041363832463442394134324639443133CE
:101E70003500003A31303431453030303237344279
:101E800032453441313336303245344131333630E6
:101E90003245344230354530303032303039000050
:101EA0003A313034314630303031303630303433FE
:101EB0003239333432464144383042343632423497
:101EC000413933343230344432303100003A313029
:101ED00034323030303031393436353146383038BC
:101EE0003242354236384634453732343442314254
:101EF000363831334239373700003A3130343231F5
:101F00003030303233344231423638303342314669
:101F10004545373030463038364639363934363034
:101F2000314138344400003A3130343232303030CC
:101F30003030463032324639323134433232344234
:101F4000453431414134313030303235414334321F
:101F5000453400003A31303432333030303134449B
:101F600043323034433230344245343141413431EC
:101F70003030303235414334323133444330330032
:101F8000003A313034323430303030303939303159
:101F900039383030463038344644303534363143C1
:101FA00034433143344245343141423300003A3105
:101FB00030343235303030413431303030324330EB
:101FC0004544433238343630304630453246383175
:101FD00034344235334638423200003A31303432FC
:101FE00036303030323533303938343730313335BC
:101FF0004532453731333442353346383235333064
:1020000039383437334500003A31303432373030E4
:102010003030313335453345373031334331323465
:102020004235334638323433303938343745384521
:1020300037353700003A31303432383030304241B1
:102040004241444543413030303030303230373413
:10205000303030303230463434333030303831463E
:1020600000003A313034323930303030433434309B
:10207000303038373835363334313233323534371F
:102080003639383738303030303230383600003A70
:10209000313034324130303031383031303032301C
:1020A00030433434303030383143343430303038E9
:1020B0003143343430303038414400003A31303428
:1020C00032423030303143343430303038314334C0
:1020D00034303030383143343430303038314334B8
:1020E0003430303038354500003A31303432433006
:1020F0003030314334343030303830384235464671
:1021000046373635464630304245464545373145F7
:102110004630424500003A313034324430303030BD
:1021200034304630434246454646333038383045F1
:10213000464633303938303731343634313441451E
:102140003900003A313034324530303031303437B4
:102150003244453946303431383242303034343606
:102160003838343631323442354536424330000057
:102170003A313034324630303039463642394436DE
:1021800041314236423133463030323046303344CA
:10219000303045344244423641413200003A313019
:1021A00034333030303030303242304344423044C7
:1021B0003438303046304237463843444638303081
:1021C000383033423436453100003A31303433311F
:1021D00030303033323436323934363230343630CF
:1021E0003046303042463930304245464545373436
:1021F000424636373800003A3130343332303030EE
:102200004142363130304630374646393030323848
:102210004543443030333442344646303030343233
:10222000363600003A3130343333303030444136C2
:102230003230324230424445384630383130304511
:102240004430304530363435373030303845390059
:10225000003A313034333430303030304245464546
:1022600045373145463030343046304342464546A6
:1022700046333038383045464633393200003A313B
:10228000303433353030303039383037313436321D
:1022900034344131303437324445394630343138C2
:1022A00032423030343436393500003A313034334C
:1022B00036303030383834363038344235453642AE
:1022C000394636423944364130373438303046307A
:1022D00038344638393700003A313034333730300B
:1022E0003043444638303038303342343633323479
:1022F000363239343632303436303046304438466F
:1023000038364100003A31303433383030303030F4
:102310004245464545373030454430304530373406
:102320003537303030383145463030343046433937
:1023300000003A3130343339303030304342464592
:1023400046463330383830454646333039383037F2
:102350003134363133344131303437313200003AA0
:102360003130343341303030324445394630343105
:1023700038324230303434363838343630383442FB
:102380003545364239463642353600003A3130342A
:1023900033423030303944364130373438303046CB
:1023A00030363046384344463830303830334234A3
:1023B0003633323436323100003A31303433433040
:1023C00030303239343632303436303046304234C0
:1023D0004638303042454645453730304544303048
:1023E0004530304300003A313034334430303038F7
:1023F000303537303030383030424546454537305B
:1024000030424546454537303042454645453731EF
:102410003500003A313034334530303037303437DE
:102420003030303045333432303030383539343371
:1024300030303038413134333030303835390000C5
:102440003A303434334630303030304245464545FA
:1024500037323600000000000000000000000000DD
:10246000000000000000000000000000003A3130D1
:1024700034334634303044344637303030383030FE
:102480003030303032303738303030303230443421
:10249000463730303038354200003A31303434304D
:1024A0003430303030303030303130303030303027
:1024B00030313037383030303032303143303130F5
:1024C000303230423300003A303834343134303036
:1024D00030303030303031303030303030303130FA
:1024E0003830000000000000000000000000000084
:1024F000000000003A313034343230303046454547
:102500003730303030303842353033343630433481
:102510004131323638354142313042344137310071
:10252000003A3130343433303030313036383033B3
:102530003333323346303033303330333434303960
:1025400034413933343230364438363800003A3189
:10255000303434343030303036344131333630304A
:1025600038424430353441303634393131363045F3
:1025700046453730304630304600003A313034344A
:1025800035303030383346433043323330333630F1
:10259000344646304646333046334537374330308D
:1025A00030303230363700003A3130343436303063
:1025B00030303046433030323031433031303032D9
:1025C00030303132333033363030313442304236CD
:1025D00030423500003A3130343437303030373023
:1025E000343730304246303430303030323030469C
:1025F000423430304235383342303034414234385E
:1026000000003A31303434383030303533463830E9
:102610003432423031393338303231303634383078
:102620003046303937464330303238383400003A9B
:102630003130343439303030303344443031343652
:102640003033343830304630333746383033423028
:102650003544463830344542393400003A3130345C
:102660003441303030303442303730343738343021
:1026700030303032303244453946303433383542E8
:102680003030343436333500003A3130343442306F
:1026900030303046343634333536304242313045CE
:1026A00034363145453030343235323834363231D3
:1026B0003436303200003A31303434433030304137
:1026C0004242453034343633383436303542304285
:1026D000444538463038333134463930313142435D
:1026E0003500003A313034344430303030344141F8
:1026F0003141343430324638313031433031333384
:1027000041423432463644333034414131320000A4
:102710003A31303434453030303133343430303283
:10272000323033463831303243344646303034303C
:10273000384539343634303436314300003A31309C
:102740003434463030303439343641424245383002
:102750003436373631423030324545334430333504
:10276000343631303245443300003A31303435307C
:102770003030303238424631303235303032334505
:10278000384537303842354646463743444646306A
:10279000384244353900003A313034353130303048
:1027A00030384235303046303937463830323441AF
:1027B000303234423941363030384244303042468B
:1027C000343800003A313034353230303030303443
:1027D0003030303038303045443030453030384299
:1027E0003530304630414246383038424436310088
:1027F000003A3130343533303030463842353034B9
:102800003436304434363137343631453436323765
:1028100034384646463739434646373000003A3169
:102820003034353430303032313638323634384660
:1028300046463739384646363136383235343846EA
:1028400046463739344646323800003A313034355E
:1028500035303030413136383234343846464637F8
:1028600039304646453136383233343846464637B5
:1028700038434646324300003A3130343536303042
:1028800030323136393232343846464637383846B7
:102890004636313639323134384646463738344692
:1028A00046324500003A313034353730303041312E
:1028B0003639323034384646463738304646453168
:1028C0003639314634384646463737434646333242
:1028D00000003A3130343538303030314534384604
:1028E000464637373946463239343631443438462D
:1028F0004646373735464631443443423000003A85
:102900003130343539303030453136413144343866
:102910004646463737304646323136423143343800
:102920004646463736434646423500003A31303453
:1029300035413030304531364231423438464646F2
:1029400037363846463135463038303046304144E7
:102950003131354634383700003A31303435423081
:1029600030303030344630434431313734384646E5
:10297000463735464646303639393136343846469C
:102980004637323900003A31303435433030303553
:102990004246464638424433393436313534384677
:1029A0004646373536464645464537333134363662
:1029B0003800003A31303435443030303133343837
:1029C0004646463735314646454445373438353630
:1029D000303030383538353630303038304100001E
:1029E0003A313034354530303036383536303030A5
:1029F0003837383536303030383838353630303092
:102A0000383938353630303038353300003A3130E7
:102A10003435463030304138353630303038423851
:102A20003536303030384338353630303038443849
:102A3000353630303038343300003A3130343630C7
:102A40003030304534353630303038303045443031
:102A50003045304634353630303038303435373024
:102A6000303038453600003A31303436313030308D
:102A70003134353730303038343435373030303821
:102A80003443353730303038323435373030303801
:102A9000353600003A313034363230303033343568
:102AA00037303030383833363931413838384134BE
:102AB0003230314430303032303730343746350000
:102AC000003A31303436333030303032363830330B
:102AD000334130313241303344383032333338339C
:102AE00036313031323037303437444300003A31F8
:102AF00030343634303030303032303730343730B4
:102B0000433442314136383432463030313032315C
:102B100041363030303231454100003A31303436C0
:102B2000353030303939363031413638323246304E
:102B3000383437323232463438303332314136303D
:102B400030373441343400003A31303436363030A6
:102B50003035413630314136383232463438303211
:102B600032314136304439363030343442344646DE
:102B700030313500003A3130343637303030303093
:102B800036323941363037303437303042463030E3
:102B90003338303234303130333030303234384101
:102BA00000003A313034363830303030304544303F
:102BB00030453032323442394236383033463030A4
:102BC0004330333034324231344430443800003AF8
:102BD00031303436393030303038324231364430AA
:102BE000314242313146344231463441314136304E
:102BF0003032453031443442394500003A313034C6
:102C00003641303030314434413141363031413455
:102C1000423942363843334633303331333142342C
:102C20004144313543363300003A31303436423096
:102C30003030313834413133363843423430313337
:102C4000363037303437313634423138344131411F
:102C50003630414200003A3130343643303030466D
:102C600030453731333442354136383542363830E5
:102C700033463033463033313246343830304636DE
:102C80003600003A3130343644303030313344305D
:102C90003133344142324642463346323044344284
:102CA0003542363843334633383831333943000000
:102CB0003A313034364530303030334642303246A7
:102CC0003330413441353236384332463330313493
:102CD000323031333235323030344300003A313023
:102CE000343646303030423346424632463330374F
:102CF0003441313336304434453730373441423251
:102D0000464246334632433500003A31303437309C
:102D1000303030303334423542363843334633383E
:102D2000383133303346423032463345414537300F
:102D3000304246433400003A31303437313030309D
:102D4000303033383032343030433030303032305D
:102D50003030323446343030393035373030303836
:102D6000454300003A313034373230303034303778
:102D700038374430313130423530304630384246D1
:102D80004130303231303834363030463042410014
:102D9000003A3130343733303030324646413043F8
:102DA00032313033323030304630324246413030CA
:102DB00032343130453030313232423400003A3131
:102DC00030343734303030323134363030323030E5
:102DD000304630413246383031323232313436309A
:102DE00030323030304630424500003A31303437EE
:102DF000353030303133463930303232323134369A
:102E00003130343630304630443646383031333461
:102E100045344232453500003A31303437363030AF
:102E20003030323243454344393032323230353239
:102E30003130303230303046303846463830323239
:102E400032353100003A31303437373030303037B6
:102E5000323130303230303046303841463830351B
:102E60003232313134363030323030304630463123
:102E700000003A3130343738303030424246393051
:102E80003532323037323130303230303046304205
:102E90003646393031323230433231313700003A40
:102EA00031303437393030303030323030304630F5
:102EB000374246383030463036374641303132328C
:102EC0003043323130303230443500003A31303422
:102ED0003741303030303046303238463930304685
:102EE0003031434638303134383030463033424662
:102EF0003846454537413300003A313034374230A7
:102F00003030413035373030303831304235303480
:102F1000343630313232303232313030323030309B
:102F20004630393500003A313034374330303031B3
:102F30003946393230343630304630353846413112
:102F4000304244313042353034343630303232332E
:102F50003100003A313034374430303030323231A1
:102F60003130343630304630304546393230343600
:102F70003030463034444641313042444646000009
:102F80003A313034374530303030384235303032F5
:102F900032303132313130343630304630303446F0
:102FA000393031323030304630373400003A313049
:102FB00034374630303038424641303132323131A8
:102FC000343630303230303046304643463834467E
:102FD000463441303730363300003A3130343830FF
:102FE0003030303030463038324641313132304680
:102FF000464637453046463936323030304630372F
:10300000434641314100003A3130343831303030BC
:1030100033413230464646374441464630353230F9
:1030200046464637434346463239323046464637AF
:10303000344100003A313034383230303044344694
:1030400046303842443338423530353436324132F6
:1030500030464646374345464630303230384200E7
:10306000003A31303438333030304646463743301A
:103070004646303032304646463742444646303087
:1030800032304646463742414646323200003A31F7
:1030900030343834303030374632304646463742A6
:1030A000374646324232304646463742464646303A
:1030B00030323046464637303800003A3130343806
:1030C0003530303042314646303032304646463771
:1030D0004145464630303230464646374142464604
:1030E00039463230363600003A31303438363030F6
:1030F00030464646374138464632433230464646E9
:103100003742304646303032343041453033354630
:1031100038374600003A31303438373030303134C7
:1031200030303030304146464637394546463135F5
:1031300046383134303046464637394146464437C2
:1031400000003A31303438383030303031333441A7
:1031500034423242344635413034464631443333CA
:103160003842443035323832444438314100003A34
:1031700031303438393030304446453830304630DC
:1031800030333041313131383146323631353438EF
:103190003033363834393030443500003A31303449
:1031A00038413030303841343031413433303236C8
:1031B00030373034373132343830333638343930D0
:1031C0003038413430463000003A31303438423003
:1031D00030303141343330323630373034373130BB
:1031E0003438303336383439303038413430314186
:1031F0003433344600003A313034384330303030E4
:10320000323630373034373044343830333638346F
:103210003930303841343031413433303236303364
:103220004400003A313034384430303037303437AD
:103230003042343830333638343930303841343035
:103240003141343330323630373034374441000086
:103250003A31303438453030303038343830333625
:10326000383439303038413430314134333032360B
:10327000303730343730304246433500003A313051
:103280003438463030303030303030323430303016
:103290003034303234303030303830323430303016
:1032A000304330323430393800003A31303439303C
:1032B00030303030303130303234303030314330F3
:1032C000323430303532383237443844464538307D
:1032D000304630313400003A31303439313030301A
:1032E0003033303930463135314232313132343891
:1032F0003433363838413430314134333432363077
:10330000354400003A3130343932303030373034DF
:103310003731303438343336383841343031413451
:10332000333432363037303437304534384637006E
:10333000003A313034393330303034333638384174
:10334000343031413433343236303730343730432F
:1033500034383433363838413430383300003A3179
:103360003034393430303031413433343236303720
:1033700030343730413438343336383841343031F2
:1033800041343334323630454200003A313034393A
:1033900035303030373034373038343834333638ED
:1033A00038413430314134333432363037303437C9
:1033B00030304246363600003A313034393630301B
:1033C00030303030303032343030303034303234ED
:1033D00030303030383032343030303043303234C6
:1033E00030323700003A3130343937303030303015
:1033F00031303032343030303143303234303035A7
:103400003238324444384446453830304630394505
:1034100000003A31303439383030303033304131D7
:103420003131383146323631353438383336383444
:103430003930303841343031413433463400003A89
:103440003130343939303030383236303730343743
:10345000313234383833363834393030384134301A
:103460003141343338323630453700003A31303468
:103470003941303030373034373130343838333602
:1034800038343930303841343031413433383236E1
:103490003037303437303400003A3130343942304C
:1034A00030303044343838333638343930303841BD
:1034B00034303141343338323630373034373042BB
:1034C0003438354200003A31303439433030303806
:1034D0003336383439303038413430314134333890
:1034E0003236303730343730383438383336384283
:1034F0003800003A313034394430303034393030EB
:103500003841343031413433383236303730343763
:1035100030304246303030303032343043440000B6
:103520003A31303439453030303030303430323464
:103530003030303038303234303030304330323464
:10354000303030313030323430393700003A3130B9
:10355000343946303030303031433032343030312D
:1035600032413036443030353238373044384446D2
:10357000453830304630324300003A313034413043
:1035800030303033413433344335353545363730D8
:103590003532383639443844464538303046303094
:1035A000333042393000003A31303441313030303C
:1035B00031333142323332423332343834333639B4
:1035C00030313232303246413031463131393433A4
:1035D000383700003A31303441323030303431360F
:1035E000313730343732463438343336393031328B
:1035F000323032464130314631313934333944008A
:10360000003A3130344133303030343136313730B4
:103610003437324334383433363930313232303261
:1036200046413031463131393433393000003A3196
:103630003034413430303034313631373034373251
:103640003934383433363930313232303246413021
:1036500031463131393433383300003A3130344176
:103660003530303034313631373034373236343823
:1036700034333639303132323032464130314631EE
:1036800031393433373600003A3130344136303056
:1036900030343136313730343732333438343336EE
:1036A00039303132323032464130314631313934BD
:1036B00033363900003A313034413730303034312C
:1036C00036313730343731413438343336393031AC
:1036D0003232303246413031463132334541423167
:1036E00000003A313034413830303030313031340C
:1036F0003136313730343731373438343336393086
:103700003132323032464130314631414600003AA2
:10371000313034413930303032334541303130315D
:103720003431363137303437313334383433363955
:103730003031323230324641383800003A3130349C
:103740004141303030303146313233454130313013
:103750003134313631373034373130343834333630
:103760003930313232383500003A3130344142306C
:1037700030303032464130314631323345413031DC
:1037800030313431363137303437304334383433F4
:103790003639413000003A31303441433030303036
:1037A00031323230324641303146313233454130A8
:1037B00031303134313631373034373039343831D3
:1037C0004300003A313034414430303034333639FC
:1037D0003031323230324641303146313233454178
:1037E0003031303134313631373034374231000006
:1037F0003A3130344145303030303030303032348E
:1038000030303030343032343030303038303234A0
:10381000303030304330323430413600003A3130CD
:103820003441463030303030313030323430303066
:10383000314330323430303732393144443830312A
:10384000323830424430444400003A31303442305F
:10385000303030313042313032323831304430372C
:103860003034373145343830333641383930303000
:10387000324641434200003A313034423130303038
:1038800030314631313934333031363237303437F4
:1038900031423438303336413839303030324641B5
:1038A000443800003A313034423230303030314622
:1038B00031313934333031363237303437313834CE
:1038C00038303336413839303030324641434200A7
:1038D000003A3130344233303030303146313139D2
:1038E000343330313632373034373130423430319E
:1038F00032383045443031384231373900003A31BE
:103900003034423430303030323238313544303176
:103910003042433730343730453443363036413027
:1039200031463030373033423400003A313034429F
:103930003530303039423030303246413033463124
:103940003031343336313632463345373041344303
:1039500036303641433900003A3130344236303067
:103960003030314630303730333942303030324603
:1039700041303346313031343336313632453945D2
:1039800037453800003A3130344237303030303645
:1039900034383433364130314630303730313839CD
:1039A00030303032464130314631313934333645AA
:1039B00000003A313034423830303034313632441D
:1039C00046453730303030303234303030303430BB
:1039D0003234303030303830323430454100003A03
:1039E0003130344239303030303732383434443882
:1039F000444645383030463030343043313431433A
:103A00003234324333343343313300003A313034CB
:103A1000424130303031463438303336383031324C
:103A2000323032464130314631313934333031363B
:103A30003037303437414500003A3130344242307B
:103A4000303031433438303336383031323230323E
:103A50004641303146313139343330313630373008
:103A60003437413100003A31303442433030303164
:103A700039343830333638303132323032464130F2
:103A800031463131393433303136303730343739EB
:103A90003400003A3130344244303030313634383A
:103AA00030333638303132323032464130314631BF
:103AB000313934333031363037303437383700002D
:103AC0003A313034424530303031333438303336A7
:103AD000383031323230324641303146313139348A
:103AE000333031363037303437374100003A3130F7
:103AF000344246303030313034383033363830317B
:103B0000323230324641303146313139343330315E
:103B1000363037303437364400003A3130344330B1
:103B2000303030304434383033363830313232305F
:103B30003246413031463131393433303136303725
:103B4000303437354600003A31303443313030308C
:103B50003041343830333638303132323032464109
:103B60003031463131393433303136303730343713
:103B7000353200003A313034433230303033303374
:103B80003830323430333433383032343034303308
:103B90003830323430343433383032343042340018
:103BA000003A31303443333030303530333830320E
:103BB00034303534333830323430363033383032D4
:103BC00034303634333830323430323400003A3125
:103BD0003034433430303030373441313336383498
:103BE0003346303031303331333630303634423191
:103BF00041363832324630303900003A31303443C1
:103C00003530303030313032314136303141363874
:103C1000323246303032303231413630373034375C
:103C200030304246344600003A313034433630308A
:103C3000303030333830323430303833383032345A
:103C40003030323442343046323437333231413618
:103C500030443600003A313034433730303037307A
:103C60003437303042463030333030313430313018
:103C700042353034343630303232313134364335F7
:103C800000003A3130344338303030313034364649
:103C90004646374237464530383442444336303062
:103CA0003734423942363831334630334300003AF4
:103CB0003130344339303030383030464641443189
:103CC0003031323230303231303834364646463791
:103CD0004142464530323442334300003A313034B9
:103CE000434130303044383638433042323130424C
:103CF0004430304246303033303031343030384266
:103D00003530323442344200003A313034434230AC
:103D10003030314236383938343730384244303038
:103D2000424630343031303032303031344230304D
:103D30003232374200003A31303443433030303190
:103D4000413630373034373130453030304530301F
:103D500034344235383630303032323941363043FF
:103D60003000003A3130344344303030314136385D
:103D700034324630303130323141363037303437FA
:103D80003030424631304530303045303544000027
:103D90003A313034434530303030323442313836C5
:103DA00038433046333030343037303437303042B7
:103DB000463130453030304530424500003A3130F0
:103DC0003443463030303034344231413638323288
:103DD000463030323032314136303141363834328B
:103DE000454134303030363500003A3130344430DB
:103DF000303030313836303730343731304530308C
:103E0000304530313042353034343646464637441A
:103E1000364646434100003A313034443130303088
:103E200030303230464646374544464634464634BE
:103E300046413630303046423034463046464637CA
:103E4000304600003A31303444323030304433466A
:103E50004646464637444446463030323846424469
:103E6000303130424430304235383342303337001D
:103E7000003A31303444333030303030323338442B
:103E800046383037333030353442314236383938BD
:103E900034374646463744304646314400003A31CE
:103EA00030344434303030384446383037303030B5
:103EB0003342303544463830344642303042463062
:103EC00038303130303230453800003A3130344407
:103ED0003530303030384235464646374537464330
:103EE0003038424430313442313836383730343764
:103EF00030304246423600003A31303444363030B9
:103F0000303130303030303230333042353134318E
:103F10004530353436394242303138343630354424
:103F200041323900003A3130344437303030384291
:103F300032333242363034464630464633303142F0
:103F400042303330424434464634303237333143E2
:103F500000003A3130344438303030414446383053
:103F600043333031344246303446314646333332BF
:103F70003334363032393330353933423200003A57
:103F800031303444393030303446463646463733A3
:103F900030303931303439314144463830453330AE
:103FA0003032343631453942353200003A3130341E
:103FB0004441303030363934363238343630304699
:103FC0003037324638343331434243424638423246
:103FD0003332423630373900003A313034444230DF
:103FE0003030303032434531443030303942303077
:103FF0003232314137304444453730374235303042
:104000003933424300003A313034444330303031A8
:10401000333436304134363031343630333438305E
:1040200030363846464637434246463033423043C0
:104030004400003A3130344444303030354446385E
:10404000303446423130303030303230324445390D
:10405000463034373845363839453432324300003B
:104060003A313034444530303038323436304334ED
:1040700036393034363939343633374438384138C4
:10408000393132463439303646434400003A313013
:1040900034444630303033314430323536383039BC
:1040A00036393646314136353639303232333035AD
:1040B000454234353035464400003A3130344530DD
:1040C0003030303935464246334635303946313066
:1040D0003130333342343439443432333842463168
:1040E000443436373400003A3130344531303030E2
:1040F000353330353330443532393436303046306C
:104100003744464230363436353042393043323324
:10411000444100003A31303445323030304341467A
:10412000383030333041333839343346303430303E
:104130003341333831344646304646333035430018
:10414000003A31303445333030304244453846301F
:1041500038373341343632313639303046304641E3
:1041600046414133383932334634323500003A3132
:1041700030344534303030393036333433463038EB
:1041800030303341333831323636313635363133EB
:1041900045343445443142424500003A31303445DB
:1041A00035303030323636304135363034453436BD
:1041B000344534353030443934453436333234368E
:1041C00034313436333400003A313034453630300F
:1041D0003032303638303046304630464141333662
:1041E0003839423142413336303233363831453452
:1041F00034324600003A31303445373030303236D0
:104200003630303032304443453732413436303046
:104210004630413646423036343630303238353426
:1042200000003A3130344538303030453244313294
:1042300031363935303436303046304637464143F2
:104240003845373244453946303446364100003A25
:1042500031303445393030303944423038303436FA
:1042600030333933384238393144303630433436DC
:104270003136343630464435413000003A3130343E
:1042800045413030303042363936424239343032AE
:1042900031303046303335464232303630323036C7
:1042A0003132384239303700003A3130344542300B
:1042B0003030304332334338463830303330344690
:1042C0004630464633304337453034303233363368
:1042D0003631393700003A313034454330303030F0
:1042E0003032333039393332303233384446383271
:1042F0003933303330323338444638324133304446
:104300003000003A313034454430303034464630A5
:104310003031304233373436334434363135463831
:104320003031334230424231323532423332000092
:104330003A313034454530303033454431423745E9
:104340004230363041304244303533343633323403
:10435000363231343634303436323800003A313087
:10436000344546303030464646373732464630319F
:1043700033303030463041343830303939423533DB
:10438000343430393933324600003A313034463033
:1043900030303033423738303032423030463039C6
:1043A0004438303030323334464630464633324378
:1043B000444539364400003A3130344631303030EB
:1043C0003035323330343933303739333844463886
:1043D0003533333031413933324634363035323289
:1043E000453700003A3130344632303030313746CC
:1043F0003830313142344634383030463033334649
:10440000413034394244304239443930363942003F
:10441000003A313034463330303034344246323072
:104420003232384446383533323031413037343423
:1044300042463242323238444638334500003A313F
:104440003034463430303035333230324137383220
:1044500041324131354430303739413246343630DB
:1044600030323030413235414500003A3130344647
:1044700035303030333934363131463830313342EB
:104480003330334230393242344444394238423195
:1044900030464530373000003A313034463630301F
:1044A000303246343642384537334634413830317D
:1044B000413042464130304630313834333034397F
:1044C00030323600003A3130344637303030334401
:1044D0003436443345373033394131313144313268
:1044E0003638303339313030324130314442313571
:1044F00000003A31303446383030303037393230DD
:104500003445303532343234334630303230333063
:104510003739323034393333423738463500003A90
:104520003130344639303030324532423043443114
:1045300037423738324132423333443130333942F3
:104540003141314431423638333700003A3130346A
:1045500046413030303033393230303242423842E6
:1045600046344646304646333330323337303539B9
:104570003332453444304400003A3130344642301E
:1045800030303339373830333232323834363030F5
:104590004630454246393338423134303233343094
:1045A0003142333200003A3130344643303030301B
:1045B0003346413030463030343942303334333092
:1045C000313337303439333339373832373438329E
:1045D0003000003A313034464430303038444638C8
:1045E0003238313030363232374531433030463070
:1045F0004441463930303238333844303546000093
:104600003A3130344645303030323334423133423F
:10461000423033394230373333323346303037303B
:10462000333038333330333933424600003A313097
:1046300034464630303030393942344234343039FF
:1046400039333644453730354642303233323031F3
:10465000323030463436453400003A31303530306F
:104660003030304136453730303233303133373007
:1046700035393331393436304132353338343631E7
:10468000304638304300003A313035303130303048
:1046900030313242333033413039324130334439B2
:1046A0003030324243384430303539314336453783
:1046B000453500003A313035303230303030354613
:1046C0004230313231303132333037343646304592
:1046D00037303341423030393332323436364400A9
:1046E000003A3130353033303030313034423034CC
:1046F0004139343034364146463330303830423038
:1047000046314646334638313436314100003A317D
:104710003035303430303044364431413338393537
:1047200042303633464635333641463039393831F2
:1047300044423042444538303000003A3130353060
:1047400035303030463038463033414230303933FE
:104750003232343630363442303441393430343603
:1047600030304630423400003A3130353036303067
:1047700030383146384541453741304637303030A2
:1047800038413646373030303841414637303030A6
:1047900038303900003A3130353037303030303051
:1047A00030303030303044393444303030383244B6
:1047B0004539463034373931343631463436373975
:1047C00000003A313035303830303038413638300A
:1047D0004236394444463832303830393334324244
:1047E0003842463133343643394638444600003A7D
:1047F000313035303930303030303330393146387F
:10480000343332303036343630433436313242315C
:104810003031333343394638394500003A31303589
:10482000304130303030303330323336383939304F
:104830003634324246443946383030333030323301
:104840003343394638414500003A31303530423043
:10485000303030303330323536383135463030361E
:1048600030353037443130344631313930414533D9
:104870003638453800003A31303530433030304436
:1048800039463830303230394231414142343232A7
:10489000384443393446383433333032323638438F
:1048A0003000003A3130353044303030303033333E
:1048B0003138424630313233393230363244443482
:1048C0003034463134333032333934363530000009
:1048D0003A3130353045303030333034364330348F
:1048E0003730313330323044303233363845353674
:1048F000384439463830303230353900003A3130BA
:104900003530463030303033463030363033303466
:1049100032423038424641443141413336383232F6
:10492000363930434246393600003A31303531307D
:104930003030303235454145353735303032353914
:1049400033343243344246394231414544313834BC
:10495000464630433000003A313035313130303066
:1049600030303039314133343444343531414431DD
:104970003030323030384530303132333532343601
:10498000463700003A313035313230303033393447
:1049900036333034364330343730313330303344CB
:1049A000313446463046463330424445383642007C
:1049B000003A3130353133303030463038373031ED
:1049C0003335433345374531313835413143333061
:1049D00032303831463834333030394400003A31DF
:1049E0003035313430303032323434393446383482
:1049F0003531303832463834333130303233334366
:104A000035453730313233343600003A31303531C4
:104A10003530303032323436333934363330343660
:104A20004330343730313330453644303039463115
:104A300030313039303000003A31303531363030B5
:104A400030443845373030303032444539463034E0
:104A500033303146313433304330433436303937F4
:104A600045314400003A3130353137303030383557
:104A700042303645323931373436303634363938CB
:104A800034363043394130304630423338303133B8
:104A900000003A3130353138303030323244383637
:104AA00033323933364430304144383030323930A3
:104AB0003046304239383035383239444500003AD2
:104AC00031303531393030303030463038333830AD
:104AD000303446313432303538344638343231307F
:104AE0003332453036343239373300003A313035DD
:104AF0003141303030303144303639323946364445
:104B0000313230363831333638303530363033465E
:104B10003130343031434500003A313035314230A4
:104B20003030324144353142363831313630303030
:104B300032423033444132443232354234323834F6
:104B40004638384300003A31303531433030303464
:104B500033323036463438304132323339453037EB
:104B600033323930304630394438303038443846C2
:104B70003700003A31303531443030303646323942
:104B800032304430373032394444443132333638AD
:104B9000343346303230303332333630394300002C
:104BA0003A313035314530303030334530373532B9
:104BB0003931374430373832394434443137383278
:104BC000333834463834353330383500003A3130F4
:104BD0003531463030303634343835354530313380
:104BE000363831393144314236383131363030346B
:104BF000463134323035454400003A3130353230B8
:104C00003030303834463834323330303132333863
:104C10004345303142363831313630313046303428
:104C2000303046444400003A313035323130303093
:104C300031384246314242324346453731333638C5
:104C4000323536383138314431303630323830361A
:104C5000353900003A31303532323030303031447D
:104C600035314236383032453036383036464244B7
:104C700035314238383534343836463239324500E9
:104C8000003A313035323330303031344246304101
:104C900032323038323230303231383446383433D0
:104CA00031303635363841353630383300003A3118
:104CB000303532343030303030324443304632399F
:104CC00035383032313638323146303034303132A6
:104CD00031363030303242314600003A31303532F0
:104CE0003530303033444431303032443430463063
:104CF0003845383036353436303832413042443138
:104D000032333638393100003A31303532363030CE
:104D10003044423037303844353233363936323623
:104D200038394134324445424633303233303546E7
:104D300038363000003A31303532373030303031AB
:104D400033433035463146463335414345423035AD
:104D500030333233363143444638303038303546DC
:104D600000003A313035323830303033423436306A
:104D70003341413231343633303436464646374695
:104D80003646453031333034444431444100003AF2
:104D900031303532393030303446463046463330A3
:104DA0003035423042444538463038333339343870
:104DB0003834463834353130383100003A31303506
:104DC0003241303030313336383231363831443197
:104DD0004431423638313536303041303630424455
:104DE0003543413037303700003A313035324230C8
:104DF0003030343442463431463032303031323162
:104E00003630314242393232363832324630323040
:104E10003032383600003A313035324330303032BB
:104E2000323630313032324237453734443036341E
:104E300038424639424232454645373635343636B1
:104E40003400003A3130353244303030423346425B
:104E500046324631303246423131333343333543C3
:104E60003035463830313344304234363531000045
:104E70003A313035324530303030303239463544D1
:104E800031423945373133363832353638363136B6
:104E9000393138314431303630423800003A31301F
:104EA00035324630303032383036314236383031B3
:104EB000443531393630303245303641303646426D
:104EC000443531393830463300003A3130353330EB
:104ED000303030303032333233363136353436429A
:104EE0003945373133363831393144313136303163
:104EF000443638303400003A3130353331303030D8
:104F0000363236383030323132383436303046305E
:104F10003342463830384231343031423630363020
:104F2000334400003A3130353332303030363336A6
:104F30003832333631303032333834463834333324
:104F40003041374537323336393241343639320021
:104F5000003A313035333330303033393436333052
:104F600034364330343730313330414144303233DA
:104F700036383942303731334434423200003A3126
:104F800030353334303030453036383033394239CB
:104F9000383432423842463138343641334537307E
:104FA00031323334413436384100003A3130353310
:104FB00035303030333934363330343643303437AB
:104FC0003031333039414430303133354533363880
:104FD00030333941393800003A31303533363030EA
:104FE00030394231414142343246324443454245F0
:104FF0003730303235303446313139303946354545
:1050000037453300003A31303533373030303030C7
:105010003242414344313033373838344638343201
:105020003330303446313432303536434537384406
:1050300000003A3130353338303030423146373085
:10504000303038433246373030303830303030301E
:105050003030303030303030303030414300003A82
:1050600031303533393030303031463046463031EA
:1050700031303241324244423130463030373046AE
:105080003038443031304638453600003A3130351A
:1050900033413030303031334230313341384234B3
:1050A0003232444430313046303037304634324288
:1050B0003346364431454100003A313035334230D1
:1050C0003030463042343431454130313231343180
:1050D0004541303134313232463030373034374662
:1050E0004630303300003A313035334330303030E1
:1050F0003030373030323346304538303235363064
:10510000383343383545413031303538364541350F
:105110004100003A313035334430303030313036B0
:1051200038354641343746354133464138374635C0
:105130003836464134374636413546413936000027
:105140003A313035334530303038374636384542DD
:105150003945454431463042433031463046463089
:10516000313032463030373032413200003A31305F
:1051700035334630303033324231313046383031D9
:1051800033423031334138334541303130333133BC
:10519000423146384431344400003A3130353430FD
:1051A00030303030303230373034373031333837D8
:1051B000303437303032443036424633353436308E
:1051C000333338324400003A313035343130303006
:1051D000303733383135463030313046303744316E
:1051E000303133303135463438303746303242464C
:1051F000363600003A3130353432303030303133E9
:105200003031354634433033463031333046304226
:10521000433031333837303437303042464237004C
:10522000003A313035343330303031304235343378
:105230003145304134343931343230304431313019
:1052400042443131463830313442333200003A3151
:1052500030353434303030303346383031344646EF
:1052600037453738383432313042353031454230C5
:1052700032303330374438443400003A313035343A
:1052800035303030343231453939343230414430C0
:10529000313146383031344230324638303134469C
:1052A00046384537423900003A31303534363030EF
:1052B000303833343246354439383131384432317C
:1052C000414433343230304431313042443133465A
:1052D00038363600003A31303534373030303031FE
:1052E000344430314638303134444637453733382A
:1052F0004235303534363030323934354430343359
:1053000000003A31303534383030303531463830BD
:1053100034334330433146303032424238424645DE
:105320003431383030463044324638313000003A7B
:10533000313035343930303031463441313336381C
:105340003130343633334239363336303134363017
:105350003238343642444538394300003A3130352A
:1053600034413030303338343030304630433842D6
:1053700038413334323043443932313638363231C1
:105380003839333432373200003A31303534423034
:105390003030303442463141363835423638363393
:1053A00036303034424635323138323236303034AD
:1053B0003630304500003A313035344330303045F6
:1053C0004345373133343635413638304142314147
:1053D000323432464144393139363835383138384B
:1053E0004200003A313035344430303041303432CC
:1053F0003042443132303638303134343538313857
:105400003832343231393630444444314536000084
:105410003A31303534453030303130363835323647
:10542000383541363030313434313936304437450F
:10543000373032443930433233344100003A31306E
:1054400035344630303032423630443345373230EE
:1054500036383231313838413432303442463131E5
:10546000363835323638453400003A31303535304B
:1054700030303036323630303442463039313832DE
:105480003136303543363043374537333842443090
:10549000304246353600003A313035353130303023
:1054A000304330313030323037304235434431438D
:1054B000323546303033303530383335304332448E
:1054C000424400003A3130353532303030333842E2
:1054D0004630433235303032443036343630314461
:1054E000424139343230334439304332333038007A
:1054F000003A3130353533303030333336303030B8
:10550000323037304244303046303744463832311A
:1055100034413134363832313436443800003A318F
:10552000303535343030303931423932303443322D
:105530003336383142423933303436303046303603
:1055400033463832303630303500003A3130353578
:10555000353030303239343633303436303046300E
:1055600035454638343331433234443130433233B5
:1055700033333630304100003A3130353536303053
:10558000303330343630304630363846384534459E
:105590003730423638354231423138443430423285
:1055A00042394600003A31303535373030303046F8
:1055B0004439304236304344353043433138333058
:1055C0003436303046303543463830344631323860
:1055D00000003A31303535383030303042303032FA
:1055E0003331443230463030373030433331414448
:1055F0003344303541343245323530364200003A9A
:105600003130353539303030443045373843343235
:10561000344236383136424636333630313336301E
:105620003043343645424537413400003A31303555
:1056300035413030303043343634393638434345E1
:1056400037433431433234463030333034413034F0
:105650003230354430393300003A3130353542305C
:1056600030303231314133303436303046303245EB
:105670004638303133304346443032353630444298
:105680004537304400003A31303535433030303022
:1056900043303130303230313030313030323046DA
:1056A0003842353037343631343436304534364488
:1056B0003500003A313035354430303032314239FE
:1056C0003131343642444538463834304646463720
:1056D0003943424632324239464646373942000063
:1056E0003A31303535453030303442464632353443
:1056F0003632383436463842443030463032364618
:10570000384130343230464432313200003A3130A0
:10571000353546303030323134363338343646461B
:1057200046373845464630353436303032384632E2
:10573000443033313436393700003A313035363081
:1057400030303032323436464646373135464633CD
:105750003134363338343646464637333546464597
:10576000394537333900003A313035363130303051
:1057700033353436453745373338423530363443A0
:1057800030303233303534363038343632333630E8
:10579000433300003A3130353632303030464546FA
:1057A0003730304646343331433032443132333689
:1057B00038303342313242363033384244393500A2
:1057C000003A3130353633303030313430313030EA
:1057D000323037303437373034373531463830347B
:1057E00033433138314630303242444300003A319D
:1057F000303536343030304243424630423538431B
:105800003031383730343735333734363136333654
:1058100042323036363732464600003A313035367D
:105820003530303036313644363533413041303022
:105830003030303032303532333032303344323041
:1058400032303235364600003A3130353636303077
:10585000303330333835383041303030303030301C
:10586000303230353233313230334432303230320C
:1058700035304200003A3130353637303030333051
:1058800033383538304130303030303030303230ED
:1058900035323332323033443230323032354641B1
:1058A00000003A3130353638303030333033383527
:1058B00038304130303030303030303230353233C3
:1058C0003332303344323032303235453900003AE9
:1058D0003130353639303030333033383538304187
:1058E00030303030303030303230353233313332A6
:1058F0003230334432303235433900003A313035BA
:105900003641303030333033383538304130303054
:10591000303030303032303443353232303344324C
:105920003032303235423000003A31303536423094
:10593000303033303338353830413030303030303B
:10594000303032303530343332303344323032302C
:105950003235414200003A31303536433030303351
:10596000303338353830413030303030303030320C
:1059700030353035333532323033443230323535EC
:105980003900003A31303536443030303330333836
:1059900035383041303030303030303034363533D7
:1059A00035323246343634313532334144330000F7
:1059B0003A313035364530303030413030303030AB
:1059C000303230343334363533353232303344329A
:1059D000303230323533303338333800003A3130FA
:1059E0003536463030303538304130303030323076
:1059F0003438343635333532323033443230323065
:105A0000323533303338434200003A3130353730A5
:105A1000303030353830413030303032303434345A
:105A2000363533353232303344323032303235333A
:105A3000303338424500003A31303537313030307C
:105A4000353830413030303032303431343635331F
:105A5000353232303344323032303235333033380D
:105A6000423100003A31303537323030303538305D
:105A700041303030303230344434443436343135CF
:105A800032323033443230323533303338374100FC
:105A9000003A3130353733303030353830413030FE
:105AA00030303230343234363431353232303344BF
:105AB00032303230323533303338413200003A310F
:105AC00030353734303030353830413030303034A4
:105AD000443639373336333041303030303030327D
